{
  "contractName": "DocumentStore",
  "abi": [
    {
      "inputs": [
        {
          "internalType": "string",
          "name": "_name",
          "type": "string"
        },
        {
          "internalType": "address",
          "name": "_mappingAddress",
          "type": "address"
        }
      ],
      "payable": false,
      "stateMutability": "nonpayable",
      "type": "constructor"
    },
    {
      "anonymous": false,
      "inputs": [
        {
          "indexed": true,
          "internalType": "bytes32",
          "name": "document",
          "type": "bytes32"
        }
      ],
      "name": "DocumentIssued",
      "type": "event"
    },
    {
      "anonymous": false,
      "inputs": [
        {
          "indexed": true,
          "internalType": "bytes32",
          "name": "document",
          "type": "bytes32"
        }
      ],
      "name": "DocumentRevoked",
      "type": "event"
    },
    {
      "anonymous": false,
      "inputs": [
        {
          "indexed": true,
          "internalType": "bytes32",
          "name": "document",
          "type": "bytes32"
        }
      ],
      "name": "DocumentSigned",
      "type": "event"
    },
    {
      "anonymous": false,
      "inputs": [
        {
          "indexed": true,
          "internalType": "address",
          "name": "previousOwner",
          "type": "address"
        },
        {
          "indexed": true,
          "internalType": "address",
          "name": "newOwner",
          "type": "address"
        }
      ],
      "name": "OwnershipTransferred",
      "type": "event"
    },
    {
      "constant": true,
      "inputs": [],
      "name": "docStoreMapping",
      "outputs": [
        {
          "internalType": "contract DocumentStoreMapping",
          "name": "",
          "type": "address"
        }
      ],
      "payable": false,
      "stateMutability": "view",
      "type": "function"
    },
    {
      "constant": true,
      "inputs": [
        {
          "internalType": "bytes32",
          "name": "",
          "type": "bytes32"
        }
      ],
      "name": "documentIssued",
      "outputs": [
        {
          "internalType": "uint256",
          "name": "",
          "type": "uint256"
        }
      ],
      "payable": false,
      "stateMutability": "view",
      "type": "function"
    },
    {
      "constant": true,
      "inputs": [
        {
          "internalType": "bytes32",
          "name": "",
          "type": "bytes32"
        }
      ],
      "name": "documentRevoked",
      "outputs": [
        {
          "internalType": "uint256",
          "name": "",
          "type": "uint256"
        }
      ],
      "payable": false,
      "stateMutability": "view",
      "type": "function"
    },
    {
      "constant": true,
      "inputs": [
        {
          "internalType": "bytes32",
          "name": "",
          "type": "bytes32"
        }
      ],
      "name": "documentSigned",
      "outputs": [
        {
          "internalType": "uint256",
          "name": "",
          "type": "uint256"
        }
      ],
      "payable": false,
      "stateMutability": "view",
      "type": "function"
    },
    {
      "constant": true,
      "inputs": [
        {
          "internalType": "bytes32",
          "name": "",
          "type": "bytes32"
        }
      ],
      "name": "documentSigner",
      "outputs": [
        {
          "internalType": "address",
          "name": "",
          "type": "address"
        }
      ],
      "payable": false,
      "stateMutability": "view",
      "type": "function"
    },
    {
      "constant": true,
      "inputs": [],
      "name": "isOwner",
      "outputs": [
        {
          "internalType": "bool",
          "name": "",
          "type": "bool"
        }
      ],
      "payable": false,
      "stateMutability": "view",
      "type": "function"
    },
    {
      "constant": true,
      "inputs": [],
      "name": "name",
      "outputs": [
        {
          "internalType": "string",
          "name": "",
          "type": "string"
        }
      ],
      "payable": false,
      "stateMutability": "view",
      "type": "function"
    },
    {
      "constant": true,
      "inputs": [],
      "name": "owner",
      "outputs": [
        {
          "internalType": "address",
          "name": "",
          "type": "address"
        }
      ],
      "payable": false,
      "stateMutability": "view",
      "type": "function"
    },
    {
      "constant": false,
      "inputs": [],
      "name": "renounceOwnership",
      "outputs": [],
      "payable": false,
      "stateMutability": "nonpayable",
      "type": "function"
    },
    {
      "constant": false,
      "inputs": [
        {
          "internalType": "address",
          "name": "newOwner",
          "type": "address"
        }
      ],
      "name": "transferOwnership",
      "outputs": [],
      "payable": false,
      "stateMutability": "nonpayable",
      "type": "function"
    },
    {
      "constant": true,
      "inputs": [],
      "name": "version",
      "outputs": [
        {
          "internalType": "string",
          "name": "",
          "type": "string"
        }
      ],
      "payable": false,
      "stateMutability": "view",
      "type": "function"
    },
    {
      "constant": false,
      "inputs": [
        {
          "internalType": "bytes32",
          "name": "document",
          "type": "bytes32"
        }
      ],
      "name": "issue",
      "outputs": [],
      "payable": false,
      "stateMutability": "nonpayable",
      "type": "function"
    },
    {
      "constant": false,
      "inputs": [
        {
          "internalType": "bytes32[]",
          "name": "documents",
          "type": "bytes32[]"
        }
      ],
      "name": "bulkIssue",
      "outputs": [],
      "payable": false,
      "stateMutability": "nonpayable",
      "type": "function"
    },
    {
      "constant": true,
      "inputs": [
        {
          "internalType": "bytes32",
          "name": "document",
          "type": "bytes32"
        }
      ],
      "name": "getIssuedBlock",
      "outputs": [
        {
          "internalType": "uint256",
          "name": "",
          "type": "uint256"
        }
      ],
      "payable": false,
      "stateMutability": "view",
      "type": "function"
    },
    {
      "constant": true,
      "inputs": [
        {
          "internalType": "bytes32",
          "name": "document",
          "type": "bytes32"
        }
      ],
      "name": "isIssued",
      "outputs": [
        {
          "internalType": "bool",
          "name": "",
          "type": "bool"
        }
      ],
      "payable": false,
      "stateMutability": "view",
      "type": "function"
    },
    {
      "constant": true,
      "inputs": [
        {
          "internalType": "bytes32",
          "name": "document",
          "type": "bytes32"
        },
        {
          "internalType": "uint256",
          "name": "blockNumber",
          "type": "uint256"
        }
      ],
      "name": "isIssuedBefore",
      "outputs": [
        {
          "internalType": "bool",
          "name": "",
          "type": "bool"
        }
      ],
      "payable": false,
      "stateMutability": "view",
      "type": "function"
    },
    {
      "constant": false,
      "inputs": [
        {
          "internalType": "bytes32",
          "name": "document",
          "type": "bytes32"
        }
      ],
      "name": "revoke",
      "outputs": [
        {
          "internalType": "bool",
          "name": "",
          "type": "bool"
        }
      ],
      "payable": false,
      "stateMutability": "nonpayable",
      "type": "function"
    },
    {
      "constant": false,
      "inputs": [
        {
          "internalType": "bytes32[]",
          "name": "documents",
          "type": "bytes32[]"
        }
      ],
      "name": "bulkRevoke",
      "outputs": [],
      "payable": false,
      "stateMutability": "nonpayable",
      "type": "function"
    },
    {
      "constant": true,
      "inputs": [
        {
          "internalType": "bytes32",
          "name": "document",
          "type": "bytes32"
        }
      ],
      "name": "isRevoked",
      "outputs": [
        {
          "internalType": "bool",
          "name": "",
          "type": "bool"
        }
      ],
      "payable": false,
      "stateMutability": "view",
      "type": "function"
    },
    {
      "constant": true,
      "inputs": [
        {
          "internalType": "bytes32",
          "name": "document",
          "type": "bytes32"
        },
        {
          "internalType": "uint256",
          "name": "blockNumber",
          "type": "uint256"
        }
      ],
      "name": "isRevokedBefore",
      "outputs": [
        {
          "internalType": "bool",
          "name": "",
          "type": "bool"
        }
      ],
      "payable": false,
      "stateMutability": "view",
      "type": "function"
    },
    {
      "constant": false,
      "inputs": [
        {
          "internalType": "bytes32",
          "name": "document",
          "type": "bytes32"
        },
        {
          "internalType": "address",
          "name": "_signer",
          "type": "address"
        }
      ],
      "name": "allowSigner",
      "outputs": [],
      "payable": false,
      "stateMutability": "nonpayable",
      "type": "function"
    },
    {
      "constant": false,
      "inputs": [
        {
          "internalType": "bytes32",
          "name": "document",
          "type": "bytes32"
        }
      ],
      "name": "sign",
      "outputs": [],
      "payable": false,
      "stateMutability": "nonpayable",
      "type": "function"
    }
  ],
  "bytecode": "0x60806040526040518060400160405280600581526020017f322e332e30000000000000000000000000000000000000000000000000000000815250600290805190602001906200005192919062000271565b503480156200005f57600080fd5b5060405162001a1d38038062001a1d833981810160405260408110156200008557600080fd5b8101908080516040519392919084640100000000821115620000a657600080fd5b83820191506020820185811115620000bd57600080fd5b8251866001820283011164010000000082111715620000db57600080fd5b8083526020830192505050908051906020019080838360005b8381101562000111578082015181840152602081019050620000f4565b50505050905090810190601f1680156200013f5780820380516001836020036101000a031916815260200191505b5060405260200180519060200190929190505050336000806101000a81548173ffffffffffffffffffffffffffffffffffffffff021916908373ffffffffffffffffffffffffffffffffffffffff1602179055506000809054906101000a900473ffffffffffffffffffffffffffffffffffffffff1673ffffffffffffffffffffffffffffffffffffffff16600073ffffffffffffffffffffffffffffffffffffffff167f8be0079c531659141344cd1fd0a4f28419497f9722a3daafe3b4186f6b6457e060405160405180910390a381600190805190602001906200022792919062000271565b5080600760006101000a81548173ffffffffffffffffffffffffffffffffffffffff021916908373ffffffffffffffffffffffffffffffffffffffff160217905550505062000320565b828054600181600116156101000203166002900490600052602060002090601f016020900481019282601f10620002b457805160ff1916838001178555620002e5565b82800160010185558215620002e5579182015b82811115620002e4578251825591602001919060010190620002c7565b5b509050620002f49190620002f8565b5090565b6200031d91905b8082111562000319576000816000905550600101620002ff565b5090565b90565b6116ed80620003306000396000f3fe608060405234801561001057600080fd5b50600436106101425760003560e01c8063715018a6116100b85780638f32d59b1161007c5780638f32d59b146106d5578063a825b7e2146106f7578063b75c7dc614610745578063bf40b9041461078b578063e9e6587f146107cd578063f2fde38b1461080f57610142565b8063715018a614610559578063799cd333146105635780637df20826146105915780638bc36c91146106495780638da5cb5b1461068b57610142565b806340fb86381161010a57806340fb8638146102d05780634294857f1461033e5780634ada80761461038457806353117f431461043c57806354fd4d50146104865780635a9e03ca1461050957610142565b806306fdde03146101475780630f75e81f146101ca578063163aa631146101f857806333358d2d1461023e578063339b6b3914610280575b600080fd5b61014f610853565b6040518080602001828103825283818151815260200191508051906020019080838360005b8381101561018f578082015181840152602081019050610174565b50505050905090810190601f1680156101bc5780820380516001836020036101000a031916815260200191505b509250505060405180910390f35b6101f6600480360360208110156101e057600080fd5b81019080803590602001909291905050506108f1565b005b6102246004803603602081101561020e57600080fd5b8101908080359060200190929190505050610a14565b604051808215151515815260200191505060405180910390f35b61026a6004803603602081101561025457600080fd5b8101908080359060200190929190505050610a34565b6040518082815260200191505060405180910390f35b6102b66004803603604081101561029657600080fd5b810190808035906020019092919080359060200190929190505050610a4c565b604051808215151515815260200191505060405180910390f35b6102fc600480360360208110156102e657600080fd5b8101908080359060200190929190505050610a8d565b604051808273ffffffffffffffffffffffffffffffffffffffff1673ffffffffffffffffffffffffffffffffffffffff16815260200191505060405180910390f35b61036a6004803603602081101561035457600080fd5b8101908080359060200190929190505050610ac0565b604051808215151515815260200191505060405180910390f35b61043a6004803603602081101561039a57600080fd5b81019080803590602001906401000000008111156103b757600080fd5b8201836020820111156103c957600080fd5b803590602001918460208302840111640100000000831117156103eb57600080fd5b919080806020026020016040519081016040528093929190818152602001838360200280828437600081840152601f19601f820116905080830192505050505050509192919290505050610ae0565b005b610444610b1d565b604051808273ffffffffffffffffffffffffffffffffffffffff1673ffffffffffffffffffffffffffffffffffffffff16815260200191505060405180910390f35b61048e610b43565b6040518080602001828103825283818151815260200191508051906020019080838360005b838110156104ce5780820151818401526020810190506104b3565b50505050905090810190601f1680156104fb5780820380516001836020036101000a031916815260200191505b509250505060405180910390f35b61053f6004803603604081101561051f57600080fd5b810190808035906020019092919080359060200190929190505050610be1565b604051808215151515815260200191505060405180910390f35b610561610c21565b005b61058f6004803603602081101561057957600080fd5b8101908080359060200190929190505050610d5a565b005b610647600480360360208110156105a757600080fd5b81019080803590602001906401000000008111156105c457600080fd5b8201836020820111156105d657600080fd5b803590602001918460208302840111640100000000831117156105f857600080fd5b919080806020026020016040519081016040528093929190818152602001838360200280828437600081840152601f19601f820116905080830192505050505050509192919290505050610fa7565b005b6106756004803603602081101561065f57600080fd5b8101908080359060200190929190505050610fe3565b6040518082815260200191505060405180910390f35b610693610ffb565b604051808273ffffffffffffffffffffffffffffffffffffffff1673ffffffffffffffffffffffffffffffffffffffff16815260200191505060405180910390f35b6106dd611024565b604051808215151515815260200191505060405180910390f35b6107436004803603604081101561070d57600080fd5b8101908080359060200190929190803573ffffffffffffffffffffffffffffffffffffffff16906020019092919050505061107b565b005b6107716004803603602081101561075b57600080fd5b8101908080359060200190929190505050611240565b604051808215151515815260200191505060405180910390f35b6107b7600480360360208110156107a157600080fd5b8101908080359060200190929190505050611367565b6040518082815260200191505060405180910390f35b6107f9600480360360208110156107e357600080fd5b81019080803590602001909291905050506113e4565b6040518082815260200191505060405180910390f35b6108516004803603602081101561082557600080fd5b81019080803573ffffffffffffffffffffffffffffffffffffffff1690602001909291905050506113fc565b005b60018054600181600116156101000203166002900480601f0160208091040260200160405190810160405280929190818152602001828054600181600116156101000203166002900480156108e95780601f106108be576101008083540402835291602001916108e9565b820191906000526020600020905b8154815290600101906020018083116108cc57829003601f168201915b505050505081565b6108f9611024565b61096b576040517f08c379a00000000000000000000000000000000000000000000000000000000081526004018080602001828103825260208152602001807f4f776e61626c653a2063616c6c6572206973206e6f7420746865206f776e657281525060200191505060405180910390fd5b8061097581610a14565b156109cb576040517f08c379a000000000000000000000000000000000000000000000000000000000815260040180806020018281038252603a81526020018061167f603a913960400191505060405180910390fd5b436003600084815260200190815260200160002081905550817f01a1249f2caa0445b8391e02413d26f0d409dabe5330cd1d04d3d0801fc42db360405160405180910390a25050565b600080600360008481526020019081526020016000205414159050919050565b60036020528060005260406000206000915090505481565b600081600460008581526020019081526020016000205411158015610a8557506000600460008581526020019081526020016000205414155b905092915050565b60056020528060005260406000206000915054906101000a900473ffffffffffffffffffffffffffffffffffffffff1681565b600080600460008481526020019081526020016000205414159050919050565b60008090505b8151811015610b1957610b0b828281518110610afe57fe5b6020026020010151611240565b508080600101915050610ae6565b5050565b600760009054906101000a900473ffffffffffffffffffffffffffffffffffffffff1681565b60028054600181600116156101000203166002900480601f016020809104026020016040519081016040528092919081815260200182805460018160011615610100020316600290048015610bd95780601f10610bae57610100808354040283529160200191610bd9565b820191906000526020600020905b815481529060010190602001808311610bbc57829003601f168201915b505050505081565b600080600360008581526020019081526020016000205414158015610c19575081600360008581526020019081526020016000205411155b905092915050565b610c29611024565b610c9b576040517f08c379a00000000000000000000000000000000000000000000000000000000081526004018080602001828103825260208152602001807f4f776e61626c653a2063616c6c6572206973206e6f7420746865206f776e657281525060200191505060405180910390fd5b600073ffffffffffffffffffffffffffffffffffffffff166000809054906101000a900473ffffffffffffffffffffffffffffffffffffffff1673ffffffffffffffffffffffffffffffffffffffff167f8be0079c531659141344cd1fd0a4f28419497f9722a3daafe3b4186f6b6457e060405160405180910390a360008060006101000a81548173ffffffffffffffffffffffffffffffffffffffff021916908373ffffffffffffffffffffffffffffffffffffffff160217905550565b80610d6481610a14565b610db9576040517f08c379a00000000000000000000000000000000000000000000000000000000081526004018080602001828103825260318152602001806115c76031913960400191505060405180910390fd5b816005600082815260200190815260200160002060009054906101000a900473ffffffffffffffffffffffffffffffffffffffff1673ffffffffffffffffffffffffffffffffffffffff163373ffffffffffffffffffffffffffffffffffffffff1614610e8e576040517f08c379a000000000000000000000000000000000000000000000000000000000815260040180806020018281038252601b8152602001807f4572726f723a204f6e6c79205369676e65722063616e2043616c6c000000000081525060200191505060405180910390fd5b826000600660008381526020019081526020016000205414610efb576040517f08c379a000000000000000000000000000000000000000000000000000000000815260040180806020018281038252603a815260200180611645603a913960400191505060405180910390fd5b83610f0581610ac0565b15610f5b576040517f08c379a00000000000000000000000000000000000000000000000000000000081526004018080602001828103825260278152602001806115f86027913960400191505060405180910390fd5b436006600087815260200190815260200160002081905550847f5906fc135d827db89806e14df1cc7b6c566baceeaaac585d4690acc45731dd5760405160405180910390a25050505050565b60008090505b8151811015610fdf57610fd2828281518110610fc557fe5b60200260200101516108f1565b8080600101915050610fad565b5050565b60046020528060005260406000206000915090505481565b60008060009054906101000a900473ffffffffffffffffffffffffffffffffffffffff16905090565b60008060009054906101000a900473ffffffffffffffffffffffffffffffffffffffff1673ffffffffffffffffffffffffffffffffffffffff163373ffffffffffffffffffffffffffffffffffffffff1614905090565b611083611024565b6110f5576040517f08c379a00000000000000000000000000000000000000000000000000000000081526004018080602001828103825260208152602001807f4f776e61626c653a2063616c6c6572206973206e6f7420746865206f776e657281525060200191505060405180910390fd5b600760009054906101000a900473ffffffffffffffffffffffffffffffffffffffff1673ffffffffffffffffffffffffffffffffffffffff16632444799d8284306040518463ffffffff1660e01b8152600401808473ffffffffffffffffffffffffffffffffffffffff1673ffffffffffffffffffffffffffffffffffffffff1681526020018381526020018273ffffffffffffffffffffffffffffffffffffffff1673ffffffffffffffffffffffffffffffffffffffff1681526020019350505050600060405180830381600087803b1580156111d257600080fd5b505af11580156111e6573d6000803e3d6000fd5b50505050806005600084815260200190815260200160002060006101000a81548173ffffffffffffffffffffffffffffffffffffffff021916908373ffffffffffffffffffffffffffffffffffffffff1602179055505050565b600061124a611024565b6112bc576040517f08c379a00000000000000000000000000000000000000000000000000000000081526004018080602001828103825260208152602001807f4f776e61626c653a2063616c6c6572206973206e6f7420746865206f776e657281525060200191505060405180910390fd5b816112c681610ac0565b1561131c576040517f08c379a00000000000000000000000000000000000000000000000000000000081526004018080602001828103825260278152602001806115f86027913960400191505060405180910390fd5b436004600085815260200190815260200160002081905550827f7283b5ab9758f7fba773279e4fd50ea7b136bd1d8371dcae9c5ce529c55343d760405160405180910390a250919050565b60008161137381610a14565b6113c8576040517f08c379a00000000000000000000000000000000000000000000000000000000081526004018080602001828103825260318152602001806115c76031913960400191505060405180910390fd5b6003600084815260200190815260200160002054915050919050565b60066020528060005260406000206000915090505481565b611404611024565b611476576040517f08c379a00000000000000000000000000000000000000000000000000000000081526004018080602001828103825260208152602001807f4f776e61626c653a2063616c6c6572206973206e6f7420746865206f776e657281525060200191505060405180910390fd5b61147f81611482565b50565b600073ffffffffffffffffffffffffffffffffffffffff168173ffffffffffffffffffffffffffffffffffffffff161415611508576040517f08c379a000000000000000000000000000000000000000000000000000000000815260040180806020018281038252602681526020018061161f6026913960400191505060405180910390fd5b8073ffffffffffffffffffffffffffffffffffffffff166000809054906101000a900473ffffffffffffffffffffffffffffffffffffffff1673ffffffffffffffffffffffffffffffffffffffff167f8be0079c531659141344cd1fd0a4f28419497f9722a3daafe3b4186f6b6457e060405160405180910390a3806000806101000a81548173ffffffffffffffffffffffffffffffffffffffff021916908373ffffffffffffffffffffffffffffffffffffffff1602179055505056fe4572726f723a204f6e6c792069737375656420646f63756d656e74206861736865732063616e206265207265766f6b65644572726f723a204861736820686173206265656e207265766f6b65642070726576696f75736c794f776e61626c653a206e6577206f776e657220697320746865207a65726f20616464726573734572726f723a204f6e6c792068617368657320746861742068617665206e6f74206265656e207369676e65642063616e206265207369676e65644572726f723a204f6e6c792068617368657320746861742068617665206e6f74206265656e206973737565642063616e20626520697373756564a265627a7a72315820dbe192311f2d65bd763cdbdec1a45615244ed445fefff53cd9f055e0d939bcc964736f6c63430005100032",
  "source": "pragma solidity ^0.5.12;\r\n\r\nimport \"./Ownable.sol\";\r\nimport \"./DocumentStoreMapping.sol\";\r\n\r\ncontract DocumentStore is Ownable {\r\n    string public name;\r\n    string public version = \"2.3.0\";\r\n\r\n    /// A mapping of the document hash to the block number that was issued\r\n    mapping(bytes32 => uint256) public documentIssued;\r\n    /// A mapping of the hash of the claim being revoked to the revocation block number\r\n    mapping(bytes32 => uint256) public documentRevoked;\r\n    mapping(bytes32 => address) public documentSigner;\r\n    mapping(bytes32 => uint256) public documentSigned;\r\n    \r\n    DocumentStoreMapping public docStoreMapping;\r\n\r\n    event DocumentIssued(bytes32 indexed document);\r\n    event DocumentRevoked(bytes32 indexed document);\r\n    event DocumentSigned(bytes32 indexed document);\r\n\r\n    constructor(string memory _name, address _mappingAddress) public {\r\n        name = _name;\r\n        docStoreMapping = DocumentStoreMapping(_mappingAddress);\r\n    }\r\n\r\n    function issue(bytes32 document) public onlyOwner onlyNotIssued(document) {\r\n        documentIssued[document] = block.number;\r\n        emit DocumentIssued(document);\r\n    }\r\n\r\n    function bulkIssue(bytes32[] memory documents) public {\r\n        for (uint256 i = 0; i < documents.length; i++) {\r\n            issue(documents[i]);\r\n        }\r\n    }\r\n\r\n    function getIssuedBlock(bytes32 document)\r\n        public\r\n        view\r\n        onlyIssued(document)\r\n        returns (uint256)\r\n    {\r\n        return documentIssued[document];\r\n    }\r\n\r\n    function isIssued(bytes32 document) public view returns (bool) {\r\n        return (documentIssued[document] != 0);\r\n    }\r\n\r\n    function isIssuedBefore(bytes32 document, uint256 blockNumber)\r\n        public\r\n        view\r\n        returns (bool)\r\n    {\r\n        return\r\n            documentIssued[document] != 0 &&\r\n            documentIssued[document] <= blockNumber;\r\n    }\r\n\r\n    function revoke(bytes32 document)\r\n        public\r\n        onlyOwner\r\n        onlyNotRevoked(document)\r\n        returns (bool)\r\n    {\r\n        documentRevoked[document] = block.number;\r\n        emit DocumentRevoked(document);\r\n    }\r\n\r\n    function bulkRevoke(bytes32[] memory documents) public {\r\n        for (uint256 i = 0; i < documents.length; i++) {\r\n            revoke(documents[i]);\r\n        }\r\n    }\r\n\r\n    function isRevoked(bytes32 document) public view returns (bool) {\r\n        return documentRevoked[document] != 0;\r\n    }\r\n\r\n    function isRevokedBefore(bytes32 document, uint256 blockNumber)\r\n        public\r\n        view\r\n        returns (bool)\r\n    {\r\n        return\r\n            documentRevoked[document] <= blockNumber &&\r\n            documentRevoked[document] != 0;\r\n    }\r\n\r\n    function allowSigner(bytes32 document, address _signer) public onlyOwner {\r\n        docStoreMapping.setMapping(_signer, document, address(this));\r\n        documentSigner[document] = _signer;\r\n    }\r\n\r\n    function sign(bytes32 document) external onlyIssued(document) onlySigner(document) onlyNotSigned(document) onlyNotRevoked(document) {\r\n        documentSigned[document] = block.number;\r\n        emit DocumentSigned(document);\r\n    }\r\n\r\n    modifier onlyIssued(bytes32 document) {\r\n        require(\r\n            isIssued(document),\r\n            \"Error: Only issued document hashes can be revoked\"\r\n        );\r\n        _;\r\n    }\r\n\r\n    modifier onlyNotIssued(bytes32 document) {\r\n        require(\r\n            !isIssued(document),\r\n            \"Error: Only hashes that have not been issued can be issued\"\r\n        );\r\n        _;\r\n    }\r\n\r\n    modifier onlyNotRevoked(bytes32 claim) {\r\n        require(!isRevoked(claim), \"Error: Hash has been revoked previously\");\r\n        _;\r\n    }\r\n\r\n    modifier onlySigner(bytes32 document) {\r\n        require(msg.sender == documentSigner[document], \"Error: Only Signer can Call\");\r\n        _;\r\n    }\r\n\r\n    modifier onlyNotSigned(bytes32 document) {\r\n        require(documentSigned[document] == 0, \"Error: Only hashes that have not been signed can be signed\");\r\n        _;\r\n    }\r\n}\r\n",
  "sourcePath": "E:/Projects/Jedtrade/jcert/jcerts-truffle-docstore/contracts/DocumentStore.sol",
  "compiler": {
    "name": "solc",
    "version": "0.5.16+commit.9c3226ce.Emscripten.clang"
  },
  "schemaVersion": "3.4.0",
  "updatedAt": "2021-06-17T07:42:21.158Z",
  "devdoc": {
    "methods": {
      "isOwner()": {
        "details": "Returns true if the caller is the current owner."
      },
      "owner()": {
        "details": "Returns the address of the current owner."
      },
      "renounceOwnership()": {
        "details": "Leaves the contract without owner. It will not be possible to call `onlyOwner` functions anymore. Can only be called by the current owner.    * NOTE: Renouncing ownership will leave the contract without an owner, thereby removing any functionality that is only available to the owner."
      },
      "transferOwnership(address)": {
        "details": "Transfers ownership of the contract to a new account (`newOwner`). Can only be called by the current owner."
      }
    }
  },
  "userdoc": {
    "methods": {}
  }
}