{
  "contractName": "DocumentStoreMapping",
  "abi": [
    {
      "constant": true,
      "inputs": [
        {
          "internalType": "address",
          "name": "",
          "type": "address"
        },
        {
          "internalType": "bytes32",
          "name": "",
          "type": "bytes32"
        }
      ],
      "name": "mappings",
      "outputs": [
        {
          "internalType": "address",
          "name": "",
          "type": "address"
        }
      ],
      "payable": false,
      "stateMutability": "view",
      "type": "function"
    },
    {
      "constant": false,
      "inputs": [
        {
          "internalType": "address",
          "name": "signer",
          "type": "address"
        },
        {
          "internalType": "bytes32",
          "name": "document",
          "type": "bytes32"
        },
        {
          "internalType": "address",
          "name": "docStore",
          "type": "address"
        }
      ],
      "name": "setMapping",
      "outputs": [],
      "payable": false,
      "stateMutability": "nonpayable",
      "type": "function"
    }
  ],
  "bytecode": "0x608060405234801561001057600080fd5b50610241806100206000396000f3fe608060405234801561001057600080fd5b50600436106100365760003560e01c80632444799d1461003b57806350c21cf0146100a9575b600080fd5b6100a76004803603606081101561005157600080fd5b81019080803573ffffffffffffffffffffffffffffffffffffffff16906020019092919080359060200190929190803573ffffffffffffffffffffffffffffffffffffffff169060200190929190505050610137565b005b6100f5600480360360408110156100bf57600080fd5b81019080803573ffffffffffffffffffffffffffffffffffffffff169060200190929190803590602001909291905050506101ca565b604051808273ffffffffffffffffffffffffffffffffffffffff1673ffffffffffffffffffffffffffffffffffffffff16815260200191505060405180910390f35b806000808573ffffffffffffffffffffffffffffffffffffffff1673ffffffffffffffffffffffffffffffffffffffff168152602001908152602001600020600084815260200190815260200160002060006101000a81548173ffffffffffffffffffffffffffffffffffffffff021916908373ffffffffffffffffffffffffffffffffffffffff160217905550505050565b60006020528160005260406000206020528060005260406000206000915091509054906101000a900473ffffffffffffffffffffffffffffffffffffffff168156fea265627a7a7231582012809f63b3e96966ad971c4030da2d21adcacb23d2c9df5f3546df6020651df264736f6c63430005100032",
  "source": "pragma solidity ^0.5.12;\r\n\r\ncontract DocumentStoreMapping {\r\n        \r\n    mapping(address => mapping(bytes32 => address)) public mappings;\r\n    \r\n    function setMapping(address signer, bytes32 document, address docStore) public {\r\n        \r\n        mappings[signer][document] = docStore;\r\n        \r\n    }\r\n}",
  "sourcePath": "E:\\Projects\\Jedtrade\\jcert\\jcerts-truffle-docstore\\contracts\\DocumentStoreMapping.sol",
  "compiler": {
    "name": "solc",
    "version": "0.5.16+commit.9c3226ce.Emscripten.clang"
  },
  "schemaVersion": "3.4.0",
  "updatedAt": "2021-06-17T07:42:21.182Z",
  "devdoc": {
    "methods": {}
  },
  "userdoc": {
    "methods": {}
  }
}